{
  "_format": "hh-sol-artifact-1",
  "contractName": "DexEchidna",
  "sourceName": "contracts/DexEchidna.sol",
  "abi": [
    {
      "inputs": [],
      "stateMutability": "nonpayable",
      "type": "constructor"
    },
    {
      "anonymous": false,
      "inputs": [
        {
          "indexed": false,
          "internalType": "uint256",
          "name": "",
          "type": "uint256"
        }
      ],
      "name": "BalanceToken1",
      "type": "event"
    },
    {
      "anonymous": false,
      "inputs": [
        {
          "indexed": false,
          "internalType": "uint256",
          "name": "",
          "type": "uint256"
        }
      ],
      "name": "BalanceToken2",
      "type": "event"
    },
    {
      "anonymous": false,
      "inputs": [
        {
          "indexed": false,
          "internalType": "string",
          "name": "",
          "type": "string"
        },
        {
          "indexed": false,
          "internalType": "uint256",
          "name": "",
          "type": "uint256"
        }
      ],
      "name": "SwapDex",
      "type": "event"
    },
    {
      "inputs": [
        {
          "internalType": "bool",
          "name": "swapDirection",
          "type": "bool"
        },
        {
          "internalType": "uint256",
          "name": "amount",
          "type": "uint256"
        }
      ],
      "name": "testSwap",
      "outputs": [],
      "stateMutability": "nonpayable",
      "type": "function"
    },
    {
      "inputs": [],
      "name": "token1",
      "outputs": [
        {
          "internalType": "contract SwappableToken",
          "name": "",
          "type": "address"
        }
      ],
      "stateMutability": "view",
      "type": "function"
    },
    {
      "inputs": [],
      "name": "token2",
      "outputs": [
        {
          "internalType": "contract SwappableToken",
          "name": "",
          "type": "address"
        }
      ],
      "stateMutability": "view",
      "type": "function"
    }
  ],
  "bytecode": "0x60806040523480156200001157600080fd5b5060405162000020906200059d565b604051809103906000f0801580156200003d573d6000803e3d6000fd5b50600260006101000a81548173ffffffffffffffffffffffffffffffffffffffff021916908373ffffffffffffffffffffffffffffffffffffffff160217905550600260009054906101000a900473ffffffffffffffffffffffffffffffffffffffff166805f68e8131ecf80000604051620000b990620005ab565b620000c692919062000706565b604051809103906000f080158015620000e3573d6000803e3d6000fd5b506000806101000a81548173ffffffffffffffffffffffffffffffffffffffff021916908373ffffffffffffffffffffffffffffffffffffffff160217905550600260009054906101000a900473ffffffffffffffffffffffffffffffffffffffff166805f68e8131ecf800006040516200015e90620005ab565b6200016b929190620007fd565b604051809103906000f08015801562000188573d6000803e3d6000fd5b50600160006101000a81548173ffffffffffffffffffffffffffffffffffffffff021916908373ffffffffffffffffffffffffffffffffffffffff160217905550600260009054906101000a900473ffffffffffffffffffffffffffffffffffffffff1673ffffffffffffffffffffffffffffffffffffffff1663cbc7854e60008054906101000a900473ffffffffffffffffffffffffffffffffffffffff16600160009054906101000a900473ffffffffffffffffffffffffffffffffffffffff166040518363ffffffff1660e01b81526004016200026a92919062000854565b600060405180830381600087803b1580156200028557600080fd5b505af11580156200029a573d6000803e3d6000fd5b5050505060008054906101000a900473ffffffffffffffffffffffffffffffffffffffff1673ffffffffffffffffffffffffffffffffffffffff1663a9059cbb600260009054906101000a900473ffffffffffffffffffffffffffffffffffffffff1668056bc75e2d631000006040518363ffffffff1660e01b815260040162000326929190620008c4565b6020604051808303816000875af115801562000346573d6000803e3d6000fd5b505050506040513d601f19601f820116820180604052508101906200036c919062000933565b50600160009054906101000a900473ffffffffffffffffffffffffffffffffffffffff1673ffffffffffffffffffffffffffffffffffffffff1663a9059cbb600260009054906101000a900473ffffffffffffffffffffffffffffffffffffffff1668056bc75e2d631000006040518363ffffffff1660e01b8152600401620003f7929190620008c4565b6020604051808303816000875af115801562000417573d6000803e3d6000fd5b505050506040513d601f19601f820116820180604052508101906200043d919062000933565b50600260009054906101000a900473ffffffffffffffffffffffffffffffffffffffff1673ffffffffffffffffffffffffffffffffffffffff1663715018a66040518163ffffffff1660e01b8152600401600060405180830381600087803b158015620004a957600080fd5b505af1158015620004be573d6000803e3d6000fd5b50505050600260009054906101000a900473ffffffffffffffffffffffffffffffffffffffff1673ffffffffffffffffffffffffffffffffffffffff1663095ea7b3600260009054906101000a900473ffffffffffffffffffffffffffffffffffffffff167fffffffffffffffffffffffffffffffffffffffffffffffffffffffffffffffff6040518363ffffffff1660e01b81526004016200056392919062000976565b600060405180830381600087803b1580156200057e57600080fd5b505af115801562000593573d6000803e3d6000fd5b50505050620009a3565b61130880620014e683390190565b611ccb80620027ee83390190565b600073ffffffffffffffffffffffffffffffffffffffff82169050919050565b6000620005e682620005b9565b9050919050565b620005f881620005d9565b82525050565b600082825260208201905092915050565b7f546f6b656e310000000000000000000000000000000000000000000000000000600082015250565b600062000647600683620005fe565b915062000654826200060f565b602082019050919050565b7f544f4e4500000000000000000000000000000000000000000000000000000000600082015250565b600062000697600483620005fe565b9150620006a4826200065f565b602082019050919050565b6000819050919050565b6000819050919050565b6000819050919050565b6000620006ee620006e8620006e284620006af565b620006c3565b620006b9565b9050919050565b6200070081620006cd565b82525050565b60006080820190506200071d6000830185620005ed565b8181036020830152620007308162000638565b90508181036040830152620007458162000688565b9050620007566060830184620006f5565b9392505050565b7f546f6b656e320000000000000000000000000000000000000000000000000000600082015250565b600062000795600683620005fe565b9150620007a2826200075d565b602082019050919050565b7f5454574f00000000000000000000000000000000000000000000000000000000600082015250565b6000620007e5600483620005fe565b9150620007f282620007ad565b602082019050919050565b6000608082019050620008146000830185620005ed565b8181036020830152620008278162000786565b905081810360408301526200083c81620007d6565b90506200084d6060830184620006f5565b9392505050565b60006040820190506200086b6000830185620005ed565b6200087a6020830184620005ed565b9392505050565b6000819050919050565b6000620008ac620008a6620008a08462000881565b620006c3565b620006b9565b9050919050565b620008be816200088b565b82525050565b6000604082019050620008db6000830185620005ed565b620008ea6020830184620008b3565b9392505050565b600080fd5b60008115159050919050565b6200090d81620008f6565b81146200091957600080fd5b50565b6000815190506200092d8162000902565b92915050565b6000602082840312156200094c576200094b620008f1565b5b60006200095c848285016200091c565b91505092915050565b6200097081620006b9565b82525050565b60006040820190506200098d6000830185620005ed565b6200099c602083018462000965565b9392505050565b610b3380620009b36000396000f3fe608060405234801561001057600080fd5b50600436106100415760003560e01c806325be124e1461004657806396f7b66e14610064578063d21220a714610080575b600080fd5b61004e61009e565b60405161005b9190610759565b60405180910390f35b61007e600480360381019061007991906107e7565b6100c4565b005b61008861069d565b6040516100959190610759565b60405180910390f35b600160009054906101000a900473ffffffffffffffffffffffffffffffffffffffff1681565b60008060009054906101000a900473ffffffffffffffffffffffffffffffffffffffff1673ffffffffffffffffffffffffffffffffffffffff166370a08231306040518263ffffffff1660e01b81526004016101209190610848565b602060405180830381865afa15801561013d573d6000803e3d6000fd5b505050506040513d601f19601f820116820180604052508101906101619190610878565b90507fd7b657ca4b489846132cd1f41de6bae15bea2f00ca93950dd9b296dcbc29496c8160405161019291906108b4565b60405180910390a16000600160009054906101000a900473ffffffffffffffffffffffffffffffffffffffff1673ffffffffffffffffffffffffffffffffffffffff166370a08231306040518263ffffffff1660e01b81526004016101f79190610848565b602060405180830381865afa158015610214573d6000803e3d6000fd5b505050506040513d601f19601f820116820180604052508101906102389190610878565b90507f2c77970d7cc34f15b4664cb44b23b2928e2818c5a4f765bf47baf042ea3d21178160405161026991906108b4565b60405180910390a183156103b65760006102a4828561028891906108fe565b838661029491906108fe565b8461029f919061095e565b6106c1565b90507f732ad617cdd220e2889795cb387eaf109d172a4d90936bbf876f9cd365018a5a816040516102d591906109ef565b60405180910390a1600260009054906101000a900473ffffffffffffffffffffffffffffffffffffffff1673ffffffffffffffffffffffffffffffffffffffff1663df791e50600160009054906101000a900473ffffffffffffffffffffffffffffffffffffffff1660008054906101000a900473ffffffffffffffffffffffffffffffffffffffff16846040518463ffffffff1660e01b815260040161037e93929190610a1d565b600060405180830381600087803b15801561039857600080fd5b505af11580156103ac573d6000803e3d6000fd5b50505050506104f1565b60006103e383856103c791906108fe565b84866103d391906108fe565b856103de919061095e565b6106c1565b90507f732ad617cdd220e2889795cb387eaf109d172a4d90936bbf876f9cd365018a5a816040516104149190610aa0565b60405180910390a1600260009054906101000a900473ffffffffffffffffffffffffffffffffffffffff1673ffffffffffffffffffffffffffffffffffffffff1663df791e5060008054906101000a900473ffffffffffffffffffffffffffffffffffffffff16600160009054906101000a900473ffffffffffffffffffffffffffffffffffffffff16846040518463ffffffff1660e01b81526004016104bd93929190610a1d565b600060405180830381600087803b1580156104d757600080fd5b505af11580156104eb573d6000803e3d6000fd5b50505050505b6804563918244f40000060008054906101000a900473ffffffffffffffffffffffffffffffffffffffff1673ffffffffffffffffffffffffffffffffffffffff166370a08231600260009054906101000a900473ffffffffffffffffffffffffffffffffffffffff166040518263ffffffff1660e01b81526004016105769190610848565b602060405180830381865afa158015610593573d6000803e3d6000fd5b505050506040513d601f19601f820116820180604052508101906105b79190610878565b10158061068a57506804563918244f400000600160009054906101000a900473ffffffffffffffffffffffffffffffffffffffff1673ffffffffffffffffffffffffffffffffffffffff166370a08231600260009054906101000a900473ffffffffffffffffffffffffffffffffffffffff166040518263ffffffff1660e01b81526004016106469190610848565b602060405180830381865afa158015610663573d6000803e3d6000fd5b505050506040513d601f19601f820116820180604052508101906106879190610878565b10155b61069757610696610ace565b5b50505050565b60008054906101000a900473ffffffffffffffffffffffffffffffffffffffff1681565b60008183116106d057816106d2565b825b905092915050565b600073ffffffffffffffffffffffffffffffffffffffff82169050919050565b6000819050919050565b600061071f61071a610715846106da565b6106fa565b6106da565b9050919050565b600061073182610704565b9050919050565b600061074382610726565b9050919050565b61075381610738565b82525050565b600060208201905061076e600083018461074a565b92915050565b600080fd5b60008115159050919050565b61078e81610779565b811461079957600080fd5b50565b6000813590506107ab81610785565b92915050565b6000819050919050565b6107c4816107b1565b81146107cf57600080fd5b50565b6000813590506107e1816107bb565b92915050565b600080604083850312156107fe576107fd610774565b5b600061080c8582860161079c565b925050602061081d858286016107d2565b9150509250929050565b6000610832826106da565b9050919050565b61084281610827565b82525050565b600060208201905061085d6000830184610839565b92915050565b600081519050610872816107bb565b92915050565b60006020828403121561088e5761088d610774565b5b600061089c84828501610863565b91505092915050565b6108ae816107b1565b82525050565b60006020820190506108c960008301846108a5565b92915050565b7f4e487b7100000000000000000000000000000000000000000000000000000000600052601260045260246000fd5b6000610909826107b1565b9150610914836107b1565b925082610924576109236108cf565b5b828206905092915050565b7f4e487b7100000000000000000000000000000000000000000000000000000000600052601160045260246000fd5b6000610969826107b1565b9150610974836107b1565b925082820390508181111561098c5761098b61092f565b5b92915050565b600082825260208201905092915050565b7f3220746f20310000000000000000000000000000000000000000000000000000600082015250565b60006109d9600683610992565b91506109e4826109a3565b602082019050919050565b60006040820190508181036000830152610a08816109cc565b9050610a1760208301846108a5565b92915050565b6000606082019050610a326000830186610839565b610a3f6020830185610839565b610a4c60408301846108a5565b949350505050565b7f3120746f20320000000000000000000000000000000000000000000000000000600082015250565b6000610a8a600683610992565b9150610a9582610a54565b602082019050919050565b60006040820190508181036000830152610ab981610a7d565b9050610ac860208301846108a5565b92915050565b7f4e487b7100000000000000000000000000000000000000000000000000000000600052600160045260246000fdfea26469706673582212208f335e3a50baaebfca0b6f9b86496c8732514777ff0a313fba66babb383f78b364736f6c63430008130033608060405234801561001057600080fd5b5061002d61002261003260201b60201c565b61003a60201b60201c565b6100fe565b600033905090565b60008060009054906101000a900473ffffffffffffffffffffffffffffffffffffffff169050816000806101000a81548173ffffffffffffffffffffffffffffffffffffffff021916908373ffffffffffffffffffffffffffffffffffffffff1602179055508173ffffffffffffffffffffffffffffffffffffffff168173ffffffffffffffffffffffffffffffffffffffff167f8be0079c531659141344cd1fd0a4f28419497f9722a3daafe3b4186f6b6457e060405160405180910390a35050565b6111fb8061010d6000396000f3fe608060405234801561001057600080fd5b50600436106100a95760003560e01c8063bfd7e00d11610071578063bfd7e00d1461012c578063cbc7854e1461015c578063d21220a714610178578063df791e5014610196578063f2fde38b146101b2578063f7888aec146101ce576100a9565b8063095ea7b3146100ae57806325be124e146100ca57806356688700146100e8578063715018a6146101045780638da5cb5b1461010e575b600080fd5b6100c860048036038101906100c39190610cb2565b6101fe565b005b6100d2610324565b6040516100df9190610d01565b60405180910390f35b61010260048036038101906100fd9190610cb2565b61034a565b005b61010c6103d7565b005b6101166103eb565b6040516101239190610d01565b60405180910390f35b61014660048036038101906101419190610d1c565b610414565b6040516101539190610d7e565b60405180910390f35b61017660048036038101906101719190610d99565b610528565b005b6101806105b6565b60405161018d9190610d01565b60405180910390f35b6101b060048036038101906101ab9190610d1c565b6105dc565b005b6101cc60048036038101906101c79190610dd9565b6109c8565b005b6101e860048036038101906101e39190610d99565b610a4b565b6040516101f59190610d7e565b60405180910390f35b600160009054906101000a900473ffffffffffffffffffffffffffffffffffffffff1673ffffffffffffffffffffffffffffffffffffffff1663e1f21c673384846040518463ffffffff1660e01b815260040161025d93929190610e06565b600060405180830381600087803b15801561027757600080fd5b505af115801561028b573d6000803e3d6000fd5b50505050600260009054906101000a900473ffffffffffffffffffffffffffffffffffffffff1673ffffffffffffffffffffffffffffffffffffffff1663e1f21c673384846040518463ffffffff1660e01b81526004016102ee93929190610e06565b600060405180830381600087803b15801561030857600080fd5b505af115801561031c573d6000803e3d6000fd5b505050505050565b600260009054906101000a900473ffffffffffffffffffffffffffffffffffffffff1681565b610352610acf565b8173ffffffffffffffffffffffffffffffffffffffff166323b872dd3330846040518463ffffffff1660e01b815260040161038f93929190610e06565b6020604051808303816000875af11580156103ae573d6000803e3d6000fd5b505050506040513d601f19601f820116820180604052508101906103d29190610e75565b505050565b6103df610acf565b6103e96000610b4d565b565b60008060009054906101000a900473ffffffffffffffffffffffffffffffffffffffff16905090565b60008373ffffffffffffffffffffffffffffffffffffffff166370a08231306040518263ffffffff1660e01b815260040161044f9190610d01565b602060405180830381865afa15801561046c573d6000803e3d6000fd5b505050506040513d601f19601f820116820180604052508101906104909190610eb7565b8373ffffffffffffffffffffffffffffffffffffffff166370a08231306040518263ffffffff1660e01b81526004016104c99190610d01565b602060405180830381865afa1580156104e6573d6000803e3d6000fd5b505050506040513d601f19601f8201168201806040525081019061050a9190610eb7565b836105159190610f13565b61051f9190610f84565b90509392505050565b610530610acf565b81600160006101000a81548173ffffffffffffffffffffffffffffffffffffffff021916908373ffffffffffffffffffffffffffffffffffffffff16021790555080600260006101000a81548173ffffffffffffffffffffffffffffffffffffffff021916908373ffffffffffffffffffffffffffffffffffffffff1602179055505050565b600160009054906101000a900473ffffffffffffffffffffffffffffffffffffffff1681565b600160009054906101000a900473ffffffffffffffffffffffffffffffffffffffff1673ffffffffffffffffffffffffffffffffffffffff168373ffffffffffffffffffffffffffffffffffffffff161480156106865750600260009054906101000a900473ffffffffffffffffffffffffffffffffffffffff1673ffffffffffffffffffffffffffffffffffffffff168273ffffffffffffffffffffffffffffffffffffffff16145b806107375750600260009054906101000a900473ffffffffffffffffffffffffffffffffffffffff1673ffffffffffffffffffffffffffffffffffffffff168373ffffffffffffffffffffffffffffffffffffffff161480156107365750600160009054906101000a900473ffffffffffffffffffffffffffffffffffffffff1673ffffffffffffffffffffffffffffffffffffffff168273ffffffffffffffffffffffffffffffffffffffff16145b5b610776576040517f08c379a000000000000000000000000000000000000000000000000000000000815260040161076d90611012565b60405180910390fd5b808373ffffffffffffffffffffffffffffffffffffffff166370a08231336040518263ffffffff1660e01b81526004016107b09190610d01565b602060405180830381865afa1580156107cd573d6000803e3d6000fd5b505050506040513d601f19601f820116820180604052508101906107f19190610eb7565b1015610832576040517f08c379a00000000000000000000000000000000000000000000000000000000081526004016108299061107e565b60405180910390fd5b600061083f848484610414565b90508373ffffffffffffffffffffffffffffffffffffffff166323b872dd3330856040518463ffffffff1660e01b815260040161087e93929190610e06565b6020604051808303816000875af115801561089d573d6000803e3d6000fd5b505050506040513d601f19601f820116820180604052508101906108c19190610e75565b508273ffffffffffffffffffffffffffffffffffffffff1663095ea7b330836040518363ffffffff1660e01b81526004016108fd92919061109e565b6020604051808303816000875af115801561091c573d6000803e3d6000fd5b505050506040513d601f19601f820116820180604052508101906109409190610e75565b508273ffffffffffffffffffffffffffffffffffffffff166323b872dd3033846040518463ffffffff1660e01b815260040161097e93929190610e06565b6020604051808303816000875af115801561099d573d6000803e3d6000fd5b505050506040513d601f19601f820116820180604052508101906109c19190610e75565b5050505050565b6109d0610acf565b600073ffffffffffffffffffffffffffffffffffffffff168173ffffffffffffffffffffffffffffffffffffffff1603610a3f576040517f08c379a0000000000000000000000000000000000000000000000000000000008152600401610a3690611139565b60405180910390fd5b610a4881610b4d565b50565b60008273ffffffffffffffffffffffffffffffffffffffff166370a08231836040518263ffffffff1660e01b8152600401610a869190610d01565b602060405180830381865afa158015610aa3573d6000803e3d6000fd5b505050506040513d601f19601f82011682018060405250810190610ac79190610eb7565b905092915050565b610ad7610c11565b73ffffffffffffffffffffffffffffffffffffffff16610af56103eb565b73ffffffffffffffffffffffffffffffffffffffff1614610b4b576040517f08c379a0000000000000000000000000000000000000000000000000000000008152600401610b42906111a5565b60405180910390fd5b565b60008060009054906101000a900473ffffffffffffffffffffffffffffffffffffffff169050816000806101000a81548173ffffffffffffffffffffffffffffffffffffffff021916908373ffffffffffffffffffffffffffffffffffffffff1602179055508173ffffffffffffffffffffffffffffffffffffffff168173ffffffffffffffffffffffffffffffffffffffff167f8be0079c531659141344cd1fd0a4f28419497f9722a3daafe3b4186f6b6457e060405160405180910390a35050565b600033905090565b600080fd5b600073ffffffffffffffffffffffffffffffffffffffff82169050919050565b6000610c4982610c1e565b9050919050565b610c5981610c3e565b8114610c6457600080fd5b50565b600081359050610c7681610c50565b92915050565b6000819050919050565b610c8f81610c7c565b8114610c9a57600080fd5b50565b600081359050610cac81610c86565b92915050565b60008060408385031215610cc957610cc8610c19565b5b6000610cd785828601610c67565b9250506020610ce885828601610c9d565b9150509250929050565b610cfb81610c3e565b82525050565b6000602082019050610d166000830184610cf2565b92915050565b600080600060608486031215610d3557610d34610c19565b5b6000610d4386828701610c67565b9350506020610d5486828701610c67565b9250506040610d6586828701610c9d565b9150509250925092565b610d7881610c7c565b82525050565b6000602082019050610d936000830184610d6f565b92915050565b60008060408385031215610db057610daf610c19565b5b6000610dbe85828601610c67565b9250506020610dcf85828601610c67565b9150509250929050565b600060208284031215610def57610dee610c19565b5b6000610dfd84828501610c67565b91505092915050565b6000606082019050610e1b6000830186610cf2565b610e286020830185610cf2565b610e356040830184610d6f565b949350505050565b60008115159050919050565b610e5281610e3d565b8114610e5d57600080fd5b50565b600081519050610e6f81610e49565b92915050565b600060208284031215610e8b57610e8a610c19565b5b6000610e9984828501610e60565b91505092915050565b600081519050610eb181610c86565b92915050565b600060208284031215610ecd57610ecc610c19565b5b6000610edb84828501610ea2565b91505092915050565b7f4e487b7100000000000000000000000000000000000000000000000000000000600052601160045260246000fd5b6000610f1e82610c7c565b9150610f2983610c7c565b9250828202610f3781610c7c565b91508282048414831517610f4e57610f4d610ee4565b5b5092915050565b7f4e487b7100000000000000000000000000000000000000000000000000000000600052601260045260246000fd5b6000610f8f82610c7c565b9150610f9a83610c7c565b925082610faa57610fa9610f55565b5b828204905092915050565b600082825260208201905092915050565b7f496e76616c696420746f6b656e73000000000000000000000000000000000000600082015250565b6000610ffc600e83610fb5565b915061100782610fc6565b602082019050919050565b6000602082019050818103600083015261102b81610fef565b9050919050565b7f4e6f7420656e6f75676820746f20737761700000000000000000000000000000600082015250565b6000611068601283610fb5565b915061107382611032565b602082019050919050565b600060208201905081810360008301526110978161105b565b9050919050565b60006040820190506110b36000830185610cf2565b6110c06020830184610d6f565b9392505050565b7f4f776e61626c653a206e6577206f776e657220697320746865207a65726f206160008201527f6464726573730000000000000000000000000000000000000000000000000000602082015250565b6000611123602683610fb5565b915061112e826110c7565b604082019050919050565b6000602082019050818103600083015261115281611116565b9050919050565b7f4f776e61626c653a2063616c6c6572206973206e6f7420746865206f776e6572600082015250565b600061118f602083610fb5565b915061119a82611159565b602082019050919050565b600060208201905081810360008301526111be81611182565b905091905056fea2646970667358221220360d2d4e5fe3505ee56fff1bb1e3ce8c399bd3f904f93d940c740b2a999ca20a64736f6c6343000813003360806040523480156200001157600080fd5b5060405162001ccb38038062001ccb833981810160405281019062000037919062000466565b828281600390816200004a919062000757565b5080600490816200005c919062000757565b505050620000713382620000bc60201b60201c565b83600560006101000a81548173ffffffffffffffffffffffffffffffffffffffff021916908373ffffffffffffffffffffffffffffffffffffffff1602179055505050505062000959565b600073ffffffffffffffffffffffffffffffffffffffff168273ffffffffffffffffffffffffffffffffffffffff16036200012e576040517f08c379a000000000000000000000000000000000000000000000000000000000815260040162000125906200089f565b60405180910390fd5b62000142600083836200022960201b60201c565b8060026000828254620001569190620008f0565b92505081905550806000808473ffffffffffffffffffffffffffffffffffffffff1673ffffffffffffffffffffffffffffffffffffffff168152602001908152602001600020600082825401925050819055508173ffffffffffffffffffffffffffffffffffffffff16600073ffffffffffffffffffffffffffffffffffffffff167fddf252ad1be2c89b69c2b068fc378daa952ba7f163c4a11628f55a4df523b3ef836040516200020991906200093c565b60405180910390a362000225600083836200022e60201b60201c565b5050565b505050565b505050565b6000604051905090565b600080fd5b600080fd5b600073ffffffffffffffffffffffffffffffffffffffff82169050919050565b6000620002748262000247565b9050919050565b620002868162000267565b81146200029257600080fd5b50565b600081519050620002a6816200027b565b92915050565b600080fd5b600080fd5b6000601f19601f8301169050919050565b7f4e487b7100000000000000000000000000000000000000000000000000000000600052604160045260246000fd5b6200030182620002b6565b810181811067ffffffffffffffff82111715620003235762000322620002c7565b5b80604052505050565b60006200033862000233565b9050620003468282620002f6565b919050565b600067ffffffffffffffff821115620003695762000368620002c7565b5b6200037482620002b6565b9050602081019050919050565b60005b83811015620003a157808201518184015260208101905062000384565b60008484015250505050565b6000620003c4620003be846200034b565b6200032c565b905082815260208101848484011115620003e357620003e2620002b1565b5b620003f084828562000381565b509392505050565b600082601f83011262000410576200040f620002ac565b5b815162000422848260208601620003ad565b91505092915050565b6000819050919050565b62000440816200042b565b81146200044c57600080fd5b50565b600081519050620004608162000435565b92915050565b600080600080608085870312156200048357620004826200023d565b5b6000620004938782880162000295565b945050602085015167ffffffffffffffff811115620004b757620004b662000242565b5b620004c587828801620003f8565b935050604085015167ffffffffffffffff811115620004e957620004e862000242565b5b620004f787828801620003f8565b92505060606200050a878288016200044f565b91505092959194509250565b600081519050919050565b7f4e487b7100000000000000000000000000000000000000000000000000000000600052602260045260246000fd5b600060028204905060018216806200056957607f821691505b6020821081036200057f576200057e62000521565b5b50919050565b60008190508160005260206000209050919050565b60006020601f8301049050919050565b600082821b905092915050565b600060088302620005e97fffffffffffffffffffffffffffffffffffffffffffffffffffffffffffffffff82620005aa565b620005f58683620005aa565b95508019841693508086168417925050509392505050565b6000819050919050565b600062000638620006326200062c846200042b565b6200060d565b6200042b565b9050919050565b6000819050919050565b620006548362000617565b6200066c62000663826200063f565b848454620005b7565b825550505050565b600090565b6200068362000674565b6200069081848462000649565b505050565b5b81811015620006b857620006ac60008262000679565b60018101905062000696565b5050565b601f8211156200070757620006d18162000585565b620006dc846200059a565b81016020851015620006ec578190505b62000704620006fb856200059a565b83018262000695565b50505b505050565b600082821c905092915050565b60006200072c600019846008026200070c565b1980831691505092915050565b600062000747838362000719565b9150826002028217905092915050565b620007628262000516565b67ffffffffffffffff8111156200077e576200077d620002c7565b5b6200078a825462000550565b62000797828285620006bc565b600060209050601f831160018114620007cf5760008415620007ba578287015190505b620007c6858262000739565b86555062000836565b601f198416620007df8662000585565b60005b828110156200080957848901518255600182019150602085019450602081019050620007e2565b8683101562000829578489015162000825601f89168262000719565b8355505b6001600288020188555050505b505050505050565b600082825260208201905092915050565b7f45524332303a206d696e7420746f20746865207a65726f206164647265737300600082015250565b600062000887601f836200083e565b915062000894826200084f565b602082019050919050565b60006020820190508181036000830152620008ba8162000878565b9050919050565b7f4e487b7100000000000000000000000000000000000000000000000000000000600052601160045260246000fd5b6000620008fd826200042b565b91506200090a836200042b565b9250828201905080821115620009255762000924620008c1565b5b92915050565b62000936816200042b565b82525050565b60006020820190506200095360008301846200092b565b92915050565b61136280620009696000396000f3fe608060405234801561001057600080fd5b50600436106100b45760003560e01c806370a082311161007157806370a08231146101a357806395d89b41146101d3578063a457c2d7146101f1578063a9059cbb14610221578063dd62ed3e14610251578063e1f21c6714610281576100b4565b806306fdde03146100b9578063095ea7b3146100d757806318160ddd1461010757806323b872dd14610125578063313ce567146101555780633950935114610173575b600080fd5b6100c161029d565b6040516100ce9190610bd3565b60405180910390f35b6100f160048036038101906100ec9190610c8e565b61032f565b6040516100fe9190610ce9565b60405180910390f35b61010f610352565b60405161011c9190610d13565b60405180910390f35b61013f600480360381019061013a9190610d2e565b61035c565b60405161014c9190610ce9565b60405180910390f35b61015d61038b565b60405161016a9190610d9d565b60405180910390f35b61018d60048036038101906101889190610c8e565b610394565b60405161019a9190610ce9565b60405180910390f35b6101bd60048036038101906101b89190610db8565b6103cb565b6040516101ca9190610d13565b60405180910390f35b6101db610413565b6040516101e89190610bd3565b60405180910390f35b61020b60048036038101906102069190610c8e565b6104a5565b6040516102189190610ce9565b60405180910390f35b61023b60048036038101906102369190610c8e565b61051c565b6040516102489190610ce9565b60405180910390f35b61026b60048036038101906102669190610de5565b61053f565b6040516102789190610d13565b60405180910390f35b61029b60048036038101906102969190610d2e565b6105c6565b005b6060600380546102ac90610e54565b80601f01602080910402602001604051908101604052809291908181526020018280546102d890610e54565b80156103255780601f106102fa57610100808354040283529160200191610325565b820191906000526020600020905b81548152906001019060200180831161030857829003601f168201915b5050505050905090565b60008061033a610666565b905061034781858561066e565b600191505092915050565b6000600254905090565b600080610367610666565b9050610374858285610837565b61037f8585856108c3565b60019150509392505050565b60006012905090565b60008061039f610666565b90506103c08185856103b1858961053f565b6103bb9190610eb4565b61066e565b600191505092915050565b60008060008373ffffffffffffffffffffffffffffffffffffffff1673ffffffffffffffffffffffffffffffffffffffff168152602001908152602001600020549050919050565b60606004805461042290610e54565b80601f016020809104026020016040519081016040528092919081815260200182805461044e90610e54565b801561049b5780601f106104705761010080835404028352916020019161049b565b820191906000526020600020905b81548152906001019060200180831161047e57829003601f168201915b5050505050905090565b6000806104b0610666565b905060006104be828661053f565b905083811015610503576040517f08c379a00000000000000000000000000000000000000000000000000000000081526004016104fa90610f5a565b60405180910390fd5b610510828686840361066e565b60019250505092915050565b600080610527610666565b90506105348185856108c3565b600191505092915050565b6000600160008473ffffffffffffffffffffffffffffffffffffffff1673ffffffffffffffffffffffffffffffffffffffff16815260200190815260200160002060008373ffffffffffffffffffffffffffffffffffffffff1673ffffffffffffffffffffffffffffffffffffffff16815260200190815260200160002054905092915050565b600560009054906101000a900473ffffffffffffffffffffffffffffffffffffffff1673ffffffffffffffffffffffffffffffffffffffff168373ffffffffffffffffffffffffffffffffffffffff1603610656576040517f08c379a000000000000000000000000000000000000000000000000000000000815260040161064d90610fc6565b60405180910390fd5b61066183838361066e565b505050565b600033905090565b600073ffffffffffffffffffffffffffffffffffffffff168373ffffffffffffffffffffffffffffffffffffffff16036106dd576040517f08c379a00000000000000000000000000000000000000000000000000000000081526004016106d490611058565b60405180910390fd5b600073ffffffffffffffffffffffffffffffffffffffff168273ffffffffffffffffffffffffffffffffffffffff160361074c576040517f08c379a0000000000000000000000000000000000000000000000000000000008152600401610743906110ea565b60405180910390fd5b80600160008573ffffffffffffffffffffffffffffffffffffffff1673ffffffffffffffffffffffffffffffffffffffff16815260200190815260200160002060008473ffffffffffffffffffffffffffffffffffffffff1673ffffffffffffffffffffffffffffffffffffffff168152602001908152602001600020819055508173ffffffffffffffffffffffffffffffffffffffff168373ffffffffffffffffffffffffffffffffffffffff167f8c5be1e5ebec7d5bd14f71427d1e84f3dd0314c0f7b2291e5b200ac8c7c3b9258360405161082a9190610d13565b60405180910390a3505050565b6000610843848461053f565b90507fffffffffffffffffffffffffffffffffffffffffffffffffffffffffffffffff81146108bd57818110156108af576040517f08c379a00000000000000000000000000000000000000000000000000000000081526004016108a690611156565b60405180910390fd5b6108bc848484840361066e565b5b50505050565b600073ffffffffffffffffffffffffffffffffffffffff168373ffffffffffffffffffffffffffffffffffffffff1603610932576040517f08c379a0000000000000000000000000000000000000000000000000000000008152600401610929906111e8565b60405180910390fd5b600073ffffffffffffffffffffffffffffffffffffffff168273ffffffffffffffffffffffffffffffffffffffff16036109a1576040517f08c379a00000000000000000000000000000000000000000000000000000000081526004016109989061127a565b60405180910390fd5b6109ac838383610b39565b60008060008573ffffffffffffffffffffffffffffffffffffffff1673ffffffffffffffffffffffffffffffffffffffff16815260200190815260200160002054905081811015610a32576040517f08c379a0000000000000000000000000000000000000000000000000000000008152600401610a299061130c565b60405180910390fd5b8181036000808673ffffffffffffffffffffffffffffffffffffffff1673ffffffffffffffffffffffffffffffffffffffff16815260200190815260200160002081905550816000808573ffffffffffffffffffffffffffffffffffffffff1673ffffffffffffffffffffffffffffffffffffffff168152602001908152602001600020600082825401925050819055508273ffffffffffffffffffffffffffffffffffffffff168473ffffffffffffffffffffffffffffffffffffffff167fddf252ad1be2c89b69c2b068fc378daa952ba7f163c4a11628f55a4df523b3ef84604051610b209190610d13565b60405180910390a3610b33848484610b3e565b50505050565b505050565b505050565b600081519050919050565b600082825260208201905092915050565b60005b83811015610b7d578082015181840152602081019050610b62565b60008484015250505050565b6000601f19601f8301169050919050565b6000610ba582610b43565b610baf8185610b4e565b9350610bbf818560208601610b5f565b610bc881610b89565b840191505092915050565b60006020820190508181036000830152610bed8184610b9a565b905092915050565b600080fd5b600073ffffffffffffffffffffffffffffffffffffffff82169050919050565b6000610c2582610bfa565b9050919050565b610c3581610c1a565b8114610c4057600080fd5b50565b600081359050610c5281610c2c565b92915050565b6000819050919050565b610c6b81610c58565b8114610c7657600080fd5b50565b600081359050610c8881610c62565b92915050565b60008060408385031215610ca557610ca4610bf5565b5b6000610cb385828601610c43565b9250506020610cc485828601610c79565b9150509250929050565b60008115159050919050565b610ce381610cce565b82525050565b6000602082019050610cfe6000830184610cda565b92915050565b610d0d81610c58565b82525050565b6000602082019050610d286000830184610d04565b92915050565b600080600060608486031215610d4757610d46610bf5565b5b6000610d5586828701610c43565b9350506020610d6686828701610c43565b9250506040610d7786828701610c79565b9150509250925092565b600060ff82169050919050565b610d9781610d81565b82525050565b6000602082019050610db26000830184610d8e565b92915050565b600060208284031215610dce57610dcd610bf5565b5b6000610ddc84828501610c43565b91505092915050565b60008060408385031215610dfc57610dfb610bf5565b5b6000610e0a85828601610c43565b9250506020610e1b85828601610c43565b9150509250929050565b7f4e487b7100000000000000000000000000000000000000000000000000000000600052602260045260246000fd5b60006002820490506001821680610e6c57607f821691505b602082108103610e7f57610e7e610e25565b5b50919050565b7f4e487b7100000000000000000000000000000000000000000000000000000000600052601160045260246000fd5b6000610ebf82610c58565b9150610eca83610c58565b9250828201905080821115610ee257610ee1610e85565b5b92915050565b7f45524332303a2064656372656173656420616c6c6f77616e63652062656c6f7760008201527f207a65726f000000000000000000000000000000000000000000000000000000602082015250565b6000610f44602583610b4e565b9150610f4f82610ee8565b604082019050919050565b60006020820190508181036000830152610f7381610f37565b9050919050565b7f496e76616c6964417070726f7665720000000000000000000000000000000000600082015250565b6000610fb0600f83610b4e565b9150610fbb82610f7a565b602082019050919050565b60006020820190508181036000830152610fdf81610fa3565b9050919050565b7f45524332303a20617070726f76652066726f6d20746865207a65726f2061646460008201527f7265737300000000000000000000000000000000000000000000000000000000602082015250565b6000611042602483610b4e565b915061104d82610fe6565b604082019050919050565b6000602082019050818103600083015261107181611035565b9050919050565b7f45524332303a20617070726f766520746f20746865207a65726f20616464726560008201527f7373000000000000000000000000000000000000000000000000000000000000602082015250565b60006110d4602283610b4e565b91506110df82611078565b604082019050919050565b60006020820190508181036000830152611103816110c7565b9050919050565b7f45524332303a20696e73756666696369656e7420616c6c6f77616e6365000000600082015250565b6000611140601d83610b4e565b915061114b8261110a565b602082019050919050565b6000602082019050818103600083015261116f81611133565b9050919050565b7f45524332303a207472616e736665722066726f6d20746865207a65726f20616460008201527f6472657373000000000000000000000000000000000000000000000000000000602082015250565b60006111d2602583610b4e565b91506111dd82611176565b604082019050919050565b60006020820190508181036000830152611201816111c5565b9050919050565b7f45524332303a207472616e7366657220746f20746865207a65726f206164647260008201527f6573730000000000000000000000000000000000000000000000000000000000602082015250565b6000611264602383610b4e565b915061126f82611208565b604082019050919050565b6000602082019050818103600083015261129381611257565b9050919050565b7f45524332303a207472616e7366657220616d6f756e742065786365656473206260008201527f616c616e63650000000000000000000000000000000000000000000000000000602082015250565b60006112f6602683610b4e565b91506113018261129a565b604082019050919050565b60006020820190508181036000830152611325816112e9565b905091905056fea26469706673582212207e3f6964d9a4e7b74dd74e85828ff035c41b28efa9290f0eb988ace4a7f1a6c864736f6c63430008130033",
  "linkReferences": {},
  "deployedLinkReferences": {}
}